:020000040800F2
:100000000050002041100008590E0008610E000841
:10001000690E0008710E0008790E0008000000004B
:10002000000000000000000000000000810E000839
:100030008D0E000800000000990E0008A50E0008B3
:10004000891000088910000889100008891000082C
:10005000891000088910000889100008891000081C
:10006000891000088910000889100008891000080C
:1000700089100008891000088910000889100008FC
:1000800089100008891000088910000889100008EC
:1000900089100008891000088910000889100008DC
:1000A00089100008891000088910000889100008CC
:1000B00089100008891000088910000889100008BC
:1000C00089100008891000088910000889100008AC
:1000D000891000088910000889100008891000089C
:1000E000891000088910000889100008000000002D
:1000F0000000000000000000000000000000000000
:0C01000000000000000000005FF808F1A3
:1001100010B5054C237833B9044B13B10448AFF341
:1001200000800123237010BDD401002000000000D6
:100130008469000808B5034B1BB103490348AFF3BA
:10014000008008BD00000000D8010020846900087C
:10015000034613F8012B002AFBD1181A0138704707
:1001600081F0004102E000BF83F0004330B54FEA68
:1001700041044FEA430594EA050F08BF90EA020FD5
:100180001FBF54EA000C55EA020C7FEA645C7FEA68
:10019000655C00F0E2804FEA5454D4EB5555B8BF8B
:1001A0006D420CDD2C4480EA020281EA030382EAFC
:1001B000000083EA010180EA020281EA0303362D8E
:1001C00088BF30BD11F0004F4FEA01314FF4801C61
:1001D0004CEA113102D0404261EB410113F0004F73
:1001E0004FEA03334CEA133302D0524263EB43032A
:1001F00094EA050F00F0A780A4F10104D5F1200EC8
:100200000DDB02FA0EFC22FA05F2801841F1000122
:1002100003FA0EF2801843FA05F359410EE0A5F1F6
:1002200020050EF1200E012A03FA0EFC28BF4CF027
:10023000020C43FA05F3C01851EBE37101F00045DD
:1002400007D54FF0000EDCF1000C7EEB00006EEBEA
:100250000101B1F5801F1BD3B1F5001F0CD3490874
:100260005FEA30004FEA3C0C04F101044FEA4452CB
:1002700012F5800F80F09A80BCF1004F08BF5FEA52
:10028000500C50F1000041EB045141EA050130BD32
:100290005FEA4C0C404141EB0101013C28BFB1F544
:1002A000801FE9D291F0000F04BF01460020B1FA8F
:1002B00081F308BF2033A3F10B03B3F120020CDA62
:1002C0000C3208DD02F1140CC2F10C0201FA0CF040
:1002D00021FA02F10CE002F11402D8BFC2F1200CA5
:1002E00001FA02F120FA0CFCDCBF41EA0C0190405B
:1002F000E41AA2BF01EB0451294330BD6FEA0404A4
:100300001F3C1CDA0C340EDC04F11404C4F120028E
:1003100020FA04F001FA02F340EA030021FA04F3A0
:1003200045EA030130BDC4F10C04C4F1200220FAF7
:1003300002F001FA04F340EA0300294630BD21FA35
:1003400004F0294630BD94F0000F83F4801306BFFB
:1003500081F480110134013D4EE77FEA645C18BFEF
:100360007FEA655C29D094EA050F08BF90EA020F86
:1003700005D054EA000C04BF1946104630BD91EA7E
:10038000030F1EBF0021002030BD5FEA545C05D181
:100390004000494128BF41F0004130BD14F58004C0
:1003A0003CBF01F5801130BD01F0004545F0FE4134
:1003B00041F470014FF0000030BD7FEA645C1ABF69
:1003C000194610467FEA655C1CBF0B46024650EAA0
:1003D000013406BF52EA033591EA030F41F40021CC
:1003E00030BD00BF90F0000F04BF0021704730B552
:1003F0004FF4806404F132044FF000054FF0000127
:1004000050E700BF90F0000F04BF0021704730B5E7
:100410004FF4806404F1320410F0004548BF4042BC
:100420004FF000013EE700BF42004FEAE2014FEA11
:1004300031014FEA02701FBF12F07F4393F07F4FEC
:1004400081F06051704732F07F4208BF704793F0EF
:100450007F4F04BF41F40021704730B54FF4607402
:1004600001F0004521F000411CE700BF50EA010205
:1004700008BF704730B54FF000050AE050EA0102AE
:1004800008BF704730B511F0004502D5404261EB1E
:1004900041014FF4806404F132045FEA915C3FF45F
:1004A000D8AE4FF003025FEADC0C18BF03325FEAFC
:1004B000DC0C18BF033202EBDC02C2F1200300FAAD
:1004C00003FC20FA02F001FA03FE40EA0E0021FAD2
:1004D00002F11444BDE600BF70B54FF0FF0C4CF4C0
:1004E000E06C1CEA11541DBF1CEA135594EA0C0F72
:1004F00095EA0C0F00F0DEF82C4481EA030621EAAD
:100500004C5123EA4C5350EA013518BF52EA0335E7
:1005100041F4801143F4801338D0A0FB02CE4FF099
:100520000005E1FB02E506F00042E0FB03E54FF0C9
:100530000006E1FB03569CF0000F18BF4EF0010EC1
:10054000A4F1FF04B6F5007F64F5407404D25FEABD
:100550004E0E6D4146EB060642EAC62141EA555170
:100560004FEAC52040EA5E504FEACE2EB4F1FD0CB2
:1005700088BFBCF5E06F1ED8BEF1004F08BF5FEA30
:10058000500E50F1000041EB045170BD06F00046E2
:1005900046EA010140EA020081EA0301B4EB5C048F
:1005A000C2BFD4EB0C0541EA045170BD41F4801187
:1005B0004FF0000E013C00F3AB8014F1360FDEBFAC
:1005C000002001F0004170BDC4F10004203C35DA88
:1005D0000C341BDC04F11404C4F1200500FA05F30B
:1005E00020FA04F001FA05F240EA020001F00042AC
:1005F00021F0004110EBD37021FA04F642EB060122
:100600005EEA430E08BF20EAD37070BDC4F10C044B
:10061000C4F1200500FA04F320FA05F001FA04F20F
:1006200040EA020001F0004110EBD37041F10001FB
:100630005EEA430E08BF20EAD37070BDC4F1200506
:1006400000FA05F24EEA020E20FA04F301FA05F26E
:1006500043EA020321FA04F001F0004121FA04F216
:1006600020EA020000EBD3705EEA430E08BF20EAE6
:10067000D37070BD94F0000F0FD101F00046400020
:1006800041EB010111F4801F08BF013CF7D041EAA2
:10069000060195F0000F18BF704703F000465200A6
:1006A00043EB030313F4801F08BF013DF7D043EA77
:1006B0000603704794EA0C0F0CEA135518BF95EA2D
:1006C0000C0F0CD050EA410618BF52EA4306D1D1B4
:1006D00081EA030101F000414FF0000070BD50EAD3
:1006E000410606BF1046194652EA430619D094EA5D
:1006F0000C0F02D150EA013613D195EA0C0F05D147
:1007000052EA03361CBF104619460AD181EA03019A
:1007100001F0004141F0FE4141F470014FF0000052
:1007200070BD41F0FE4141F4780170BD70B54FF0ED
:10073000FF0C4CF4E06C1CEA11541DBF1CEA13556D
:1007400094EA0C0F95EA0C0F00F0A7F8A4EB05044F
:1007500081EA030E52EA03354FEA013100F0888046
:100760004FEA03334FF0805545EA131343EA12630F
:100770004FEA022245EA111545EA10654FEA0026C4
:100780000EF000419D4208BF964244F1FD0404F57D
:10079000407402D25B084FEA3202B61A65EB0305D9
:1007A0005B084FEA32024FF480104FF4002CB6EB96
:1007B000020E75EB030E22BFB61A754640EA0C0016
:1007C0005B084FEA3202B6EB020E75EB030E22BF56
:1007D000B61A754640EA5C005B084FEA3202B6EB97
:1007E000020E75EB030E22BFB61A754640EA9C0056
:1007F0005B084FEA3202B6EB020E75EB030E22BF26
:10080000B61A754640EADC0055EA060E18D04FEAE3
:10081000051545EA16754FEA06164FEAC30343EA83
:1008200052734FEAC2025FEA1C1CC0D111F4801F50
:100830000BD141EA00014FF000004FF0004CB6E749
:1008400011F4801F04BF01430020B4F1FD0C88BFE8
:10085000BCF5E06F3FF6AFAEB5EB030C04BFB6EBF3
:10086000020C5FEA500C50F1000041EB045170BDE6
:100870000EF0004E4EEA113114EB5C04C2BFD4EB13
:100880000C0541EA045170BD41F480114FF0000E97
:10089000013C90E645EA060E8DE60CEA135594EA13
:1008A0000C0F08BF95EA0C0F3FF43BAF94EA0C0F16
:1008B0000AD150EA01347FF434AF95EA0C0F7FF48B
:1008C00025AF104619462CE795EA0C0F06D152EADF
:1008D00003353FF4FDAE1046194622E750EA4106C3
:1008E00018BF52EA43067FF4C5AE50EA41047FF4D4
:1008F0000DAF52EA43057FF4EBAE12E74FF0FF3C39
:1009000006E000BF4FF0010C02E000BF4FF0010C09
:100910004DF804CD4FEA410C7FEA6C5C4FEA430C82
:1009200018BF7FEA6C5C1BD001B050EA410C0CBFD1
:1009300052EA430C91EA030F02BF90EA020F002033
:10094000704710F1000F91EA030F58BF994208BF9A
:1009500090422CBFD8176FEAE37040F00100704757
:100960004FEA410C7FEA6C5C02D150EA013C07D1AE
:100970004FEA430C7FEA6C5CD6D152EA033CD3D0F9
:100980005DF8040B704700BF8446104662468C46F3
:100990001946634600E000BF01B5FFF7B7FF002826
:1009A00048BF10F1000F01BD4DF808EDFFF7F4FF4F
:1009B0000CBF012000205DF808FB00BF4DF808EDDA
:1009C000FFF7EAFF34BF012000205DF808FB00BFFD
:1009D0004DF808EDFFF7E0FF94BF012000205DF81F
:1009E00008FB00BF4DF808EDFFF7CEFF94BF0120D4
:1009F00000205DF808FB00BF4DF808EDFFF7C4FFCD
:100A000034BF012000205DF808FB00BF4FEA410C15
:100A10007FEA6C5C02D150EA013C0AD14FEA430CF8
:100A20007FEA6C5C02D152EA033C02D14FF0000035
:100A300070474FF0010070474FEA410212F5001273
:100A400015D211D56FF47873B3EB625212D94FEA15
:100A5000C12343F0004343EA505311F0004F23FAFF
:100A600002F018BF404270474FF00000704750EA54
:100A7000013005D111F0004008BF6FF00040704711
:100A80004FF00000704700BF4A0011D212F500126B
:100A900011D20DD56FF47873B3EB62520ED44FEAD6
:100AA000C12343F0004343EA505323FA02F0704756
:100AB0004FF00000704750EA013002D14FF0FF3094
:100AC00070474FF0000070474FEA4102B2F1E04337
:100AD00024BFB3F5001CDCF1FE5C0DD901F0004C25
:100AE0004FEAC0024CEA5070B2F1004F40EB830075
:100AF00008BF20F00100704711F0804F21D113F1A1
:100B00003872BCBF01F00040704741F480114FEAD9
:100B10005252C2F11802C2F1200C10FA0CF320FA62
:100B200002F018BF40F001004FEAC1234FEAD3237F
:100B300003FA0CFC40EA0C0023FA02F34FEA4303E9
:100B4000CCE77FEA625307D150EA01331EBF4FF072
:100B5000FE4040F44000704701F0004040F0FE408D
:100B600040F40000704700BF38B50022002304465F
:100B70000D46FFF723FF28B920462946BDE8384037
:100B800000F00AB8204605F1004100F005F84042A7
:100B900061EB410138BD00BFD0B500220B4B0646CA
:100BA0000F46FFF799FCFFF76FFF0446FFF71AFCAB
:100BB0000022074BFFF790FC02460B4630463946B1
:100BC000FFF7D2FAFFF760FF2146D0BD0000F03DED
:100BD0000000F04180B582B000AF00F057FA00F09D
:100BE0002FF800F093F800F067F8084A3B4692E8C7
:100BF000030018600433198002330A0C1A703B4654
:100C0000184600F005F800BFEFE700BFA069000834
:100C100080B582B000AF78607868FFF799FA034634
:100C20009AB24FF0FF337968044801F07DF96420EF
:100C300000F08EFA00BF0837BD4680BDF0010020ED
:100C400080B590B000AF07F11803282200211846A4
:100C500002F0C9FA3B1D00221A605A609A60DA60FD
:100C60001A610223BB610123BB621023FB620023D4
:100C70007B6307F11803184600F0F6FC0346002BCF
:100C800001D000F065F80F237B600023BB600023D8
:100C9000FB6000233B6100237B613B1D0021184664
:100CA00000F064FF0346002B01D000F051F800BFB4
:100CB0004037BD4680BD000080B500AF114B124AE1
:100CC0001A60104B4FF4E1325A600E4B00229A60CA
:100CD0000C4B0022DA600B4B00221A61094B0C22EC
:100CE0005A61084B00229A61064B0022DA610548DE
:100CF00001F0CAF80346002B01D000F029F800BF2C
:100D000080BD00BFF00100200038014080B483B0F6
:100D100000AF0E4B9B690D4A43F0200393610B4BD0
:100D20009B6903F020037B607B68084B9B69074A43
:100D300043F004039361054B9B6903F004033B609C
:100D40003B6800BF0C37BD4680BC704700100240B6
:100D500080B400AF72B600BF00BFFDE780B485B0BD
:100D600000AF154B9B69144A43F001039361124B8A
:100D70009B6903F00103BB60BB680F4BDB690E4A44
:100D800043F08053D3610C4BDB6903F080537B60ED
:100D90007B680A4B5B68FB60FB6823F0E063FB60E9
:100DA000FB6843F08063FB60044AFB68536000BF4C
:100DB0001437BD4680BC704700100240000001405F
:100DC00080B588B000AF786007F1100300221A6088
:100DD0005A609A60DA607B681B681C4A934231D182
:100DE0001B4B9B691A4A43F480439361184B9B69E0
:100DF00003F48043FB60FB68154B9B69144A43F086
:100E000004039361124B9B6903F00403BB60BB684E
:100E10004FF400733B6102237B610323FB6107F105
:100E2000100319460B4800F09BFA4FF480633B61B6
:100E300000237B610023BB6107F1100319460548BD
:100E400000F08EFA00BF2037BD4680BD003801405B
:100E5000001002400008014080B400AF00BFFDE771
:100E600080B400AF00BFFDE780B400AF00BFFDE776
:100E700080B400AF00BFFDE780B400AF00BFFDE766
:100E800080B400AF00BFBD4680BC704780B400AFE7
:100E900000BFBD4680BC704780B400AF00BFBD46F8
:100EA00080BC704780B500AF00F036F900BF80BD50
:100EB00080B400AF01231846BD4680BC704780B5A2
:100EC00082B000AF7860396002F0E0F90346162284
:100ED0001A604FF0FF3318460837BD4680BD80B515
:100EE00082B000AF78604FF0FF317868FFF7E7FF1E
:100EF00000BFFDE780B586B000AFF860B9607A60EA
:100F000000237B610AE0AFF300800146BB685A1CF6
:100F1000BA60CAB21A707B6901337B617A697B68F7
:100F20009A42F0DB7B6818461837BD4680BD80B515
:100F300086B000AFF860B9607A6000237B6109E099
:100F4000BB685A1CBA601B781846AFF300807B69F7
:100F500001337B617A697B689A42F1DB7B681846D2
:100F60001837BD4680BD80B483B000AF78604FF0C5
:100F7000FF3318460C37BD4680BC704780B483B041
:100F800000AF786039603B684FF400525A6000232C
:100F900018460C37BD4680BC704780B483B000AFA4
:100FA0007860012318460C37BD4680BC704780B47A
:100FB00085B000AFF860B9607A6000231846143736
:100FC000BD4680BC7047000080B586B000AF786039
:100FD000144A154BD31A7B617B693B61134B1B6829
:100FE000002B02D1114B124A1A60104B1A687B6811
:100FF00013443A699A4207D202F048F903460C2298
:101000001A604FF0FF3309E0084B1B68FB60074B89
:101010001A687B681344054A1360FB681846183742
:10102000BD4680BD005000200004000038020020B2
:101030009003002080B400AF00BFBD4680BC704765
:10104000FFF7F8FF0B480C490C4A002302E0D45884
:10105000C4500433C4188C42F9D3094A094C002304
:1010600001E013600432A242FBD302F015F9FFF74E
:10107000B1FD704700000020D40100200C6E000874
:10108000D40100208C030020FEE7000080B500AFF3
:10109000084B1B68074A43F010031360032000F05D
:1010A0002BF90F2000F008F8FFF758FE0023184630
:1010B00080BD00BF0020024080B582B000AF7860E4
:1010C000124B1A68124B1B7819464FF47A73B3FB14
:1010D000F1F3B2FBF3F3184600F035F90346002BA9
:1010E00001D001230EE07B680F2B0AD8002279681B
:1010F0004FF0FF3000F00BF9064A7B6813600023C5
:1011000000E0012318460837BD4680BD00000020DE
:10111000080000200400002080B400AF054B1B78BD
:101120001A46054B1B681344034A136000BFBD46B3
:1011300080BC7047080000203C02002080B400AF53
:10114000024B1B681846BD4680BC70473C0200201D
:1011500080B584B000AF7860FFF7F0FFB8607B68BF
:10116000FB60FB68B3F1FF3F05D00A4B1B781A46C2
:10117000FB681344FB6000BFFFF7E0FF0246BB685B
:10118000D31AFA689A42F7D800BF00BF1037BD469D
:1011900080BD00BF0800002080B485B000AF78603B
:1011A0007B6803F00703FB600C4BDB68BB60BA682D
:1011B0004FF6FF031340BB60FB681A02BB68134382
:1011C00043F0BF6343F40033BB60044ABB68D360A1
:1011D00000BF1437BD4680BC704700BF00ED00E083
:1011E00080B400AF044BDB681B0A03F0070318460A
:1011F000BD4680BC704700BF00ED00E080B483B006
:1012000000AF03463960FB7197F90730002B0ADB0A
:101210003B68DAB20C4997F907301201D2B20B449D
:1012200083F800230AE03B68DAB20849FB7903F04F
:101230000F03043B1201D2B20B441A7600BF0C37E5
:10124000BD4680BC704700BF00E100E000ED00E05B
:1012500080B489B000AFF860B9607A60FB6803F0D1
:101260000703FB61FB69C3F10703042B28BF0423B9
:10127000BB61FB690433062B02D9FB69033B00E029
:1012800000237B614FF0FF32BB6902FA03F3DA43BC
:10129000BB681A407B699A404FF0FF317B6901FAC5
:1012A00003F3D9437B680B40134318462437BD46EC
:1012B00080BC704780B582B000AF78607B68013B2E
:1012C000B3F1807F01D301230FE00A4A7B68013B21
:1012D00053600F214FF0FF30FFF790FF054B0022C6
:1012E0009A60044B07221A60002318460837BD464F
:1012F00080BD00BF10E000E080B582B000AF786034
:101300007868FFF749FF00BF0837BD4680BD80B54C
:1013100086B000AF0346B9607A60FB7300237B613F
:10132000FFF75EFF78617A68B9687869FFF790FF28
:10133000024697F90F3011461846FFF75FFF00BFCE
:101340001837BD4680BD80B582B000AF7860786840
:10135000FFF7B0FF034618460837BD4680BD0000C2
:1013600080B48BB000AF7860396000237B620023CB
:101370003B6269E101227B6A02FA03F3FB613B688D
:101380001B68FA691340BB61BA69FB699A4240F075
:1013900058813B685B689A4A93425ED0984A934270
:1013A00075D8984A934258D0964A93426FD8964A35
:1013B000934252D0944A934269D8944A93424CD073
:1013C000924A934263D8924A934246D0904A9342BB
:1013D0005DD8122B2AD8122B59D801A252F823F02B
:1013E0005B1400083514000847140008891400082D
:1013F0008F1400088F1400088F1400088F14000841
:101400008F1400088F1400088F1400088F14000830
:101410008F1400088F1400088F1400088F14000820
:101420008F1400083D14000851140008794A9342B3
:1014300013D02CE03B68DB683B6229E03B68DB684B
:1014400004333B6224E03B68DB6808333B621FE007
:101450003B68DB680C333B621AE03B689B68002BFF
:1014600002D104233B6213E03B689B68012B05D14A
:1014700008233B627B68FA691A6109E008233B6232
:101480007B68FA695A6103E000233B6200E000BF19
:10149000BB69FF2B01D87B6801E07B6804337B616B
:1014A000BB69FF2B02D87B6A9B0002E07B6A083B8A
:1014B0009B003B617B691A680F213B6901FA03F3CA
:1014C000DB431A40396A3B6901FA03F31A437B692B
:1014D0001A603B685B6803F08053002B00F0B1801A
:1014E0004D4B9B694C4A43F0010393614A4B9B6906
:1014F00003F00103BB60BB68484A7B6A9B08023368
:1015000052F82330FB607B6A03F003039B000F2239
:1015100002FA03F3DB43FA681340FB607B68404A3E
:10152000934213D07B683F4A93420DD07B683E4A7A
:10153000934207D07B683D4A934201D1032306E0E2
:10154000042304E0022302E0012300E000237A6A7E
:1015500002F0030292009340FA681343FB602F49A4
:101560007B6A9B080233FA6841F823203B685B687A
:1015700003F48013002B06D02D4B9A682C49BB69CD
:1015800013438B6006E02A4B9A68BB69DB4328490A
:1015900013408B603B685B6803F40013002B06D09C
:1015A000234BDA682249BB691343CB6006E0204B2A
:1015B000DA68BB69DB431E491340CB603B685B685C
:1015C00003F40033002B06D0194B5A681849BB6945
:1015D00013434B6006E0164B5A68BB69DB43144962
:1015E00013404B603B685B6803F48033002B21D0D1
:1015F0000F4B1A680E49BB6913430B6021E000BF13
:1016000000003210000031100000221000002110F4
:1016100000001210000011100010024000000140F4
:1016200000080140000C014000100140001401407E
:10163000000401400B4B1A68BB69DB4309491340A6
:101640000B607B6A01337B623B681A687B6A22FA13
:1016500003F3002B7FF48EAE00BF00BF2C37BD46D6
:1016600080BC70470004014080B586B000AF786050
:101670007B68002B01D1012372E27B681B6803F0B9
:101680000103002B00F08780924B5B6803F00C0392
:10169000042B0CD08F4B5B6803F00C03082B12D18A
:1016A0008C4B5B6803F48033B3F5803F0BD1894BDF
:1016B0001B6803F40033002B6CD07B685B68002B45
:1016C00068D101234CE27B685B68B3F5803F06D1AB
:1016D000804B1B687F4A43F4803313602EE07B68A5
:1016E0005B68002B0CD17B4B1B687A4A23F4803358
:1016F0001360784B1B68774A23F4802313601DE046
:101700007B685B68B3F5A02F0CD1724B1B68714AE4
:1017100043F4802313606F4B1B686E4A43F480339D
:1017200013600BE06B4B1B686A4A23F48033136031
:10173000684B1B68674A23F4802313607B685B68EF
:10174000002B13D0FFF7FAFC386108E0FFF7F6FC36
:1017500002463B69D31A642B01D9032300E25D4B97
:101760001B6803F40033002BF0D014E0FFF7E6FC15
:10177000386108E0FFF7E2FC02463B69D31A642BAC
:1017800001D90323ECE1534B1B6803F40033002B16
:10179000F0D100E000BF7B681B6803F00203002B60
:1017A00063D04C4B5B6803F00C03002B0BD0494B10
:1017B0005B6803F00C03082B1CD1464B5B6803F4F9
:1017C0008033002B16D1434B1B6803F00203002B20
:1017D00005D07B681B69012B01D00123C0E13D4B83
:1017E0001B6823F0F8027B685B69DB00394913430F
:1017F0000B603AE07B681B69002B20D0364B01223E
:101800001A60FFF79BFC386108E0FFF797FC02467F
:101810003B69D31A022B01D90323A1E12D4B1B688D
:1018200003F00203002BF0D02A4B1B6823F0F802D0
:101830007B685B69DB00274913430B6015E0264B8F
:1018400000221A60FFF77AFC386108E0FFF776FCA7
:1018500002463B69D31A022B01D9032380E11D4BB9
:101860001B6803F00203002BF0D17B681B6803F0B8
:101870000803002B3AD07B689B69002B19D0174BCB
:1018800001221A60FFF75AFC386108E0FFF756FCA6
:1018900002463B69D31A022B01D9032360E10D4BA9
:1018A0005B6A03F00203002BF0D0012000F0CEFAB7
:1018B0001CE00A4B00221A60FFF740FC38610FE081
:1018C000FFF73CFC02463B69D31A022B08D90323DD
:1018D00046E100BF00100240000042428004424244
:1018E000924B5B6A03F00203002BE9D17B681B6813
:1018F00003F00403002B00F0A6800023FB758B4B44
:10190000DB6903F08053002B0DD1884BDB69874ADC
:1019100043F08053D361854BDB6903F08053BB6098
:10192000BB680123FB75824B1B6803F48073002B9B
:1019300018D17F4B1B687E4A43F480731360FFF716
:10194000FDFB386108E0FFF7F9FB02463B69D31A5B
:10195000642B01D9032303E1754B1B6803F48073E7
:10196000002BF0D07B68DB68012B06D16F4B1B6A24
:101970006E4A43F0010313622DE07B68DB68002BA5
:101980000CD16A4B1B6A694A23F001031362674B4F
:101990001B6A664A23F0040313621CE07B68DB6861
:1019A000052B0CD1614B1B6A604A43F004031362A0
:1019B0005E4B1B6A5D4A43F0010313620BE05B4B15
:1019C0001B6A5A4A23F001031362584B1B6A574A99
:1019D00023F0040313627B68DB68002B15D0FFF74C
:1019E000ADFB38610AE0FFF7A9FB02463B69D31A59
:1019F00041F28832934201D90323B1E04B4B1B6A79
:101A000003F00203002BEED014E0FFF797FB3861E0
:101A10000AE0FFF793FB02463B69D31A41F2883292
:101A2000934201D903239BE0404B1B6A03F002035E
:101A3000002BEED1FB7D012B05D13C4BDB693B4AF2
:101A400023F08053D3617B68DB69002B00F0878033
:101A5000364B5B6803F00C03082B61D07B68DB69B5
:101A6000022B46D1334B00221A60FFF767FB386127
:101A700008E0FFF763FB02463B69D31A022B01D94A
:101A800003236DE0294B1B6803F00073002BF0D19A
:101A90007B681B6AB3F5803F08D1244B5B6823F455
:101AA00000327B689B68214913434B601F4B5B6886
:101AB00023F474127B68196A7B685B6A0B431B49C9
:101AC00013434B601B4B01221A60FFF737FB386151
:101AD00008E0FFF733FB02463B69D31A022B01D91A
:101AE00003233DE0114B1B6803F00073002BF0D083
:101AF00035E0104B00221A60FFF720FB386108E048
:101B0000FFF71CFB02463B69D31A022B01D90323C2
:101B100026E0064B1B6803F00073002BF0D11EE09B
:101B20007B68DB69012B07D1012319E0001002401B
:101B300000700040600042420B4B5B68FB60FB683A
:101B400003F480327B681B6A9A4206D1FB6803F477
:101B500070127B685B6A9A4201D0012300E0002387
:101B600018461837BD4680BD0010024080B584B0CD
:101B700000AF786039607B68002B01D10123D0E091
:101B80006A4B1B6803F007033A689A4210D9674B07
:101B90001B6823F0070265493B6813430B60634BE6
:101BA0001B6803F007033A689A4201D00123B8E0AA
:101BB0007B681B6803F00203002B20D07B681B6846
:101BC00003F00403002B05D0594B5B68584A43F4DB
:101BD000E06353607B681B6803F00803002B05D0AB
:101BE000534B5B68524A43F460535360504B5B68FD
:101BF00023F0F0027B689B684D4913434B607B6880
:101C00001B6803F00103002B40D07B685B68012B4D
:101C100007D1474B1B6803F40033002B15D1012378
:101C20007FE07B685B68022B07D1414B1B6803F0A8
:101C30000073002B09D1012373E03D4B1B6803F0B7
:101C40000203002B01D101236BE0394B5B6823F0C9
:101C500003027B685B68364913434B60FFF76EFAFB
:101C6000F8600AE0FFF76AFA0246FB68D31A41F20D
:101C70008832934201D9032353E02D4B5B6803F074
:101C80000C027B685B689B009A42EBD1274B1B6878
:101C900003F007033A689A4210D2244B1B6823F0E2
:101CA000070222493B6813430B60204B1B6803F07B
:101CB00007033A689A4201D0012332E07B681B682F
:101CC00003F00403002B08D0194B5B6823F4E06297
:101CD0007B68DB68164913434B607B681B6803F025
:101CE0000803002B09D0124B5B6823F460527B6819
:101CF0001B69DB000E4913434B6000F021F80246DC
:101D00000B4B5B681B0903F00F030A49CB5C22FAFB
:101D100003F3094A1360094B1B681846FFF7CCF917
:101D2000002318461037BD4680BD00BF002002408A
:101D300000100240A86900080000002004000020F4
:101D400080B487B000AF0023FB600023BB6000239A
:101D50007B6100237B6000233B611E4B5B68FB6063
:101D6000FB6803F00C03042B02D0082B03D027E000
:101D7000194B3B6127E0FB689B0C03F00F03174AEC
:101D8000D35C7B60FB6803F48033002B10D0114BD5
:101D90005B685B0C03F00103114AD35CBB607B689A
:101DA0000D4A03FB02F2BB68B2FBF3F37B6104E074
:101DB0007B680C4A02FB03F37B617B693B6102E0B9
:101DC000054B3B6100BF3B6918461C37BD4680BCD4
:101DD000704700BF0010024000127A00C06900087E
:101DE000D069000800093D0080B400AF024B1B68B9
:101DF0001846BD4680BC70470000002080B500AF8B
:101E0000FFF7F2FF0246054B5B681B0A03F007036E
:101E10000349CB5C22FA03F3184680BD0010024050
:101E2000B869000880B500AFFFF7DEFF0246054B3A
:101E30005B68DB0A03F007030349CB5C22FA03F378
:101E4000184680BD00100240B869000880B485B013
:101E500000AF78600A4B1B680A4AA2FB03235B0AA7
:101E60007A6802FB03F3FB6000BFFB685A1EFA604E
:101E7000002BF9D100BF00BF1437BD4680BC7047AE
:101E800000000020D34D621080B582B000AF7860B2
:101E90007B68002B01D1012342E07B6893F841303D
:101EA000DBB2002B06D17B68002283F840207868E3
:101EB000FEF786FF7B68242283F841207B681B683D
:101EC000DA687B681B6822F40052DA60786800F0F8
:101ED00071F97B681B681A697B681B6822F4904261
:101EE0001A617B681B685A697B681B6822F02A02AA
:101EF0005A617B681B68DA687B681B6842F4005291
:101F0000DA607B6800225A647B68202283F84120D3
:101F10007B68202283F842207B6800225A630023DA
:101F200018460837BD4680BD80B58AB002AFF8605C
:101F3000B9603B601346FB8000237B61FB6893F82C
:101F40004130DBB2202B75D1BB68002B02D0FB885F
:101F5000002B01D101236EE0FB6800225A64FB686C
:101F6000212283F84120FFF7E9F87861FB68FA88BD
:101F70009A84FB68FA88DA84FB689B68B3F5805F13
:101F800008D1FB681B69002B04D10023FB61BB68EF
:101F9000BB6103E0BB68FB610023BB612EE03B68D3
:101FA00000937B6900228021F86800F048F803461E
:101FB000002B05D0FB68202283F8412003233AE060
:101FC000FB69002B0BD1BB691B881A46FB681B6899
:101FD000C2F308025A60BB690233BB6107E0FB69C8
:101FE0001A78FB681B685A60FB690133FB61FB6868
:101FF000DB8C9BB2013B9AB2FB68DA84FB68DB8C1A
:102000009BB2002BCBD13B6800937B69002240211F
:10201000F86800F014F80346002B05D0FB68202276
:1020200083F84120032306E0FB68202283F8412047
:10203000002300E0022318462037BD4680BD80B54E
:1020400086B000AFF860B9603B601346FB713BE0BF
:102050003B6AB3F1FF3F37D0FFF770F802463B68A9
:10206000D31A3A6A9A4202D33B6A002B01D1032366
:102070003AE0FB681B68DB6803F00403002B23D005
:10208000BB68802B20D0BB68402B1DD0FB681B6831
:102090001B6803F00803082B16D100237B61FB6843
:1020A0001B681B687B61FB681B685B687B617B69E5
:1020B000F86800F01DF8FB6808225A64FB680022EB
:1020C00083F8402001230FE0FB681B681A68BB6897
:1020D0001340BA689A420CBF01230023DBB21A46B0
:1020E000FB799A42B4D0002318461837BD4680BD0C
:1020F00080B495B000AF78607B681B680C337B635D
:102100007B6B53E8003F3B633B6B23F49073FB64B2
:102110007B681B680C33FA6C3A64FB63F96B3A6CAE
:1021200041E80023BB63BB6B002BE5D17B681B68D8
:1021300014333B623B6A53E8003FFB61FB6923F0C9
:102140000103BB647B681B681433BA6CFA62BB6220
:10215000B96AFA6A41E800237B627B6A002BE5D109
:102160007B681B6B012B19D17B681B680C33FB60F0
:10217000FB6853E8003FBB60BB6823F010037B643F
:102180007B681B680C337A6CBA617B617969BA69C8
:1021900041E800233B613B69002BE5D17B682022AD
:1021A00083F842207B6800221A6300BF5437BD4683
:1021B00080BC704780B584B000AF78607B681B68D6
:1021C0001B6923F440517B68DA687B681B680A430B
:1021D0001A617B689A687B681B691A437B685B6934
:1021E0001343BB607B681B68DB6823F4B05323F0A8
:1021F0000C037A681268B9680B43D3607B681B686C
:102200005B6923F440717B689A697B681B680A43A9
:102210005A617B681B682C4A934203D1FFF702FE88
:10222000F86002E0FFF7EAFDF860FA6813469B00E9
:1022300013449A001A447B685B689B00B2FBF3F37B
:10224000224AA2FB03235B091901FA6813469B008B
:1022500013449A001A447B685B689B00B2FBF3F25C
:102260001A4BA3FB02035B09642000FB03F3D31AA0
:102270001B013233154AA2FB03235B0903F0F00371
:102280001944FA6813469B0013449A001A447B6869
:102290005B689B00B2FBF3F20C4BA3FB02035B09F0
:1022A000642000FB03F3D31A1B013233074AA2FB5D
:1022B00003235B0903F00F027B681B680A449A60E2
:1022C00000BF1037BD4680BD003801401F85EB516F
:1022D000002B2DE9F0471D46BBBF03F100431D460F
:1022E00000232D2388B01446B8BF1446129A109EBE
:1022F0001370149BDDF84CA023F02008B8F1460FB2
:1023000005D0B8F1450F00D10136022300E00323C8
:1023100007AA049206AACDE902A2CDE90036224618
:102320002B4601F07DF8B8F1470F074619D1119BF4
:10233000DB070ED500EB06090022002320462946C4
:10234000FEF732FB08B1CDF81C903022079B4B45BD
:102350001ED33846079B159ADB1B136008B0BDE8F7
:10236000F087B8F1460F00EB0609E5D10378302B72
:102370000AD10022002320462946FEF715FB18B992
:10238000C6F10106CAF80060DAF800309944D3E7D4
:10239000591C07911A70D9E7F7B50029B6BF2D234C
:1023A0002B23494209290270437029DD0DF10703EF
:1023B0001D460A27B1FBF7F61A4607FB1614303400
:1023C00002F8014C0C46632C314603F1FF33F1DC7B
:1023D0003031941E03F8011C2346411CAB420AD342
:1023E0000DF109039B1AAC4288BF0023023303445A
:1023F000181A03B0F0BD13F8016B01F8016FEDE797
:10240000302330318370C170031DF1E72DE9F04FA7
:1024100091B00C46DDF8688016461F46054600F070
:10242000EBFE036818460893FDF792FE00230E9317
:10243000D8F800300990073323F0070303F10802AE
:1024400094F818A0D4F800B0C8F80020D3E90089A7
:1024500029F000430B93CDF828804FF0FF32DDE9DF
:102460000A01C4E912899C4BFEF7D0FA70BBDDE982
:102470000A014FF0FF32984BFEF7AAFA30BB002258
:10248000002340464946FEF799FA10B12D2384F8FF
:102490004330924A924BBAF1470F8CBF9046984610
:1024A00003234FF0000923612BF00403236033461C
:1024B0002146284600970FAA00F0D4F9013040F0D9
:1024C00090804FF0FF3011B0BDE8F08F42464B4690
:1024D00040464946FEF79AFA48B14B46002BB8BF32
:1024E0002D23804AB8BF84F843307F4BD3E763681D
:1024F0000AF0DF015A1C3FD10623636000224BF42F
:102500008063236006920EAACDE904A20DAA03926D
:102510000DF13302CDE9013263684246009328464B
:102520004B460A91FFF7D4FE0A99804647290D9938
:1025300028D1C81C02DB6368994240DDAAF1020A77
:102540005FFA8AFA5246013904F150000D91FFF703
:1025500023FF0E9A81461318012A236102DC2268A8
:10256000D20701D5013323619DF83330002B9ED073
:102570002D2384F843309AE74729BFD1002BBDD1E2
:102580000123BAE7BAF1650FDCD9BAF1660F18D1A9
:10259000002963680BDD216113B92268D00702D5D9
:1025A00001330B4423614FF00009A165DCE713B947
:1025B0002268D20701D50233F4E70123F2E74FF096
:1025C000670A0E9B994205DB23682161D807EAD58B
:1025D0004B1CE7E70029CCBF0122C1F102021344E2
:1025E000E0E723685A0507D4236942463146284666
:1025F000B84701302BD164E7BAF1650F40F2DC80B7
:10260000D4E9120100220023FEF7CEF9002833D0CE
:10261000012331462846354AB84701303FF451AFCF
:10262000DDE90D38434502DB2368D8070FD5DDE926
:10263000082331462846B84701303FF442AF4FF0F7
:10264000000908F1FF3804F11A0AC84509DC2368BB
:102650009B0700F10281E0680F9B9842B8BF1846C3
:1026600031E70123524631462846B84701303FF44E
:1026700028AF09F10109E8E70D9B002B38DC0123A5
:1026800031462846194AB84701303FF41AAFDDE910
:102690000D3959EA030302D12368D907D7D5DDE9FB
:1026A000082331462846B84701303FF40AAF4FF0BF
:1026B000000A04F11A0B0D9B5B42534501DC4B46AB
:1026C00093E701235A4631462846B84701303FF484
:1026D000F8AE0AF1010AEEE7FFFFEF7FD6690008C6
:1026E000D2690008DE690008DA690008E2690008BA
:1026F000A36DDDF838A05345A8BF5346002B99467B
:1027000036DC4FF0000B29EAE97904F11A02A36DD7
:102710000A93A3EB09035B4531DC0D9B9A453ADC38
:102720002368DA0737D40D9BAAEB03090A9BAAEBAF
:1027300003039945A8BF9946B9F1000F33DC4FF068
:10274000000829EAE97904F11A0B0D9BAAEB0303AF
:10275000A3EB090343457FF77AAF01235A4631467D
:102760002846B84701303FF4ACAE08F10108ECE769
:10277000424631462846B8470130C2D1A1E601237E
:10278000314628460A92B84701303FF49AAE0A9A79
:102790000BF1010BBBE73146DDE908232846B847BA
:1027A0000130C0D18DE60A9A4B4631462846424454
:1027B000B8470130C3D184E6DDF838A0BAF1010F83
:1027C00001DCDB0736D50123424631462846B847AF
:1027D00001303FF476AEDDE9082331462846B8479C
:1027E00001303FF46EAED4E91201002200230AF159
:1027F000FF3AFEF7D9F8C0B9534608F10102314655
:102800002846B84701300CD15BE601235A463146D1
:102810002846B84701303FF454AE08F10108D045CE
:10282000F3DB4B4604F15002E0E64FF0000804F100
:102830001A0BF4E701234246E1E701234A463146F9
:102840002846B84701303FF43CAE08F10108E36880
:102850000F995B1A4345F0DCFDE64FF0000804F1E8
:102860001909F4E72DE9F047164698468A680B697E
:1028700007469342B8BF1346336091F843200C4695
:10288000DDF820900AB1013333602368990642BF16
:10289000336802333360256815F0060506D104F16C
:1028A000190AE36832689B1AAB422BDC94F8433078
:1028B0002268003B18BF0123920630D441463846B7
:1028C00004F14302C847013023D02368226903F092
:1028D0000603042B14BF002533684FF0000608BF21
:1028E000E56804F11A0408BFED1A54F8123C08BF59
:1028F00025EAE5759342C4BF9B1AED18B5421AD17B
:10290000002008E00123524641463846C8470130BE
:1029100003D14FF0FF30BDE8F0870135C1E730202B
:10292000E11881F843005A1C94F845102244023300
:1029300082F84310C2E70123224641463846C84781
:102940000130E6D00136D9E72DE9FF470F7E9146E9
:10295000782F80460C469A460C9E01F1430207D818
:10296000622F0AD8002F00F0D180582F00F0B880D5
:1029700004F1420684F842703AE0A7F16303152B94
:10298000F6D801A151F823F0E1290008F529000843
:1029900071290008712900087129000871290008AF
:1029A000F52900087129000871290008712900081B
:1029B00071290008F32A00081F2A0008AD2A000820
:1029C0007129000871290008152B000871290008D9
:1029D0001F2A00087129000871290008B52A00087B
:1029E00033681A1D1B68326004F1420684F84230D5
:1029F00001239CE033682068191D3160060601D56B
:102A00001D6803E04506FBD5B3F90050002D03DA3D
:102A10002D236D4284F843300A23584811E0216881
:102A20003368080653F8045B02D4490648BFADB2C8
:102A30006F2F336014BF0A2308235048002184F805
:102A400043106668002EA66005DB21682E4321F046
:102A5000040121604BD01646B5FBF3F103FB11577F
:102A6000C75D06F8017D2F46BB420D46F4D9082B01
:102A70000BD12368DF0708D5236961689942DEBF5F
:102A8000302306F8013C06F1FF36921B22614B46CB
:102A900021464046CDF800A003AAFFF7E3FE01302F
:102AA0004AD14FF0FF3004B0BDE8F087236843F00F
:102AB000200323607827324884F845702368316802
:102AC0001F0651F8045B02D45F0648BFADB2316007
:102AD000D90744BF43F0200323601DB11023ADE7A5
:102AE0002648E9E7236823F020032360F6E716462B
:102AF000BDE733682568181D616930602E061B68C4
:102B000001D5196002E06806FBD51980002316463E
:102B10002361BCE7336800211A1D32601E686268B9
:102B2000304600F0E0FB08B1801B60606368236101
:102B3000002384F84330AAE73246494640462369D9
:102B4000D0470130ADD023689B0713D4E068039BC6
:102B50009842B8BF1846A6E7012332464946404688
:102B6000D04701309DD00135E36803995B1AAB4231
:102B7000F2DCEBE7002504F11906F5E7E46900084B
:102B8000F56900082DE9F04F87B003938B689146F3
:102B90005A1EB2F5AE7F82BF6FF4AE7503EB050B24
:102BA00040F25D130A464FF0000588BF8B600B684A
:102BB000804643F4F06342F81C3B0C4698BF4FF04C
:102BC000000B1646AA462F46CDE904550192029500
:102BD000A2685AB1D9F800301B784E2B62D8402B2E
:102BE0003AD8A3F12B01C8B20E2838D91FB12368F7
:102BF00023F4807323600AF1FF3ABAF1010F00F267
:102C00001481019B9E4200F20581012007B0BDE8BE
:102C1000F08FA3F161020D2AE8D801A151F822F04A
:102C2000692D0008ED2B0008ED2B0008ED2B0008A6
:102C3000C52D00089F2D0008ED2B0008ED2B000886
:102C4000772D0008ED2B0008ED2B0008ED2B000878
:102C5000ED2B0008332D0008A3F14102DBE70E291C
:102C6000C4D801A050F821F0232D0008ED2B000856
:102C7000232D0008B32D0008ED2B0008C52C0008FB
:102C8000092D0008092D0008092D0008092D00084C
:102C9000092D0008092D0008092D0008092D00083C
:102CA000092D00086E2B09D8602BB2D8542B7BD08D
:102CB000592B9BD1072D99D108252FE0742B73D068
:102CC000792BF6E72168C8051ED521F08001216027
:102CD0000137BBF1000F03D001320BF1FF3BA260C3
:102CE000A368013BA360236901332361D9F8043051
:102CF000013B002BC9F8043040F38380D9F8003041
:102D00000133C9F8003063E71AEB05017FF46EAFB9
:102D10000D468A46226822F4C072226006F8013B02
:102D2000DEE7226810067FF561AF22F080022260A4
:102D3000F4E7BAF1000F0CD177B9226802F4E06130
:102D4000B1F5E06F08D122F4F0624FF0010A226081
:102D5000E4E7BAF1020F51D0012D02D0042D7FF427
:102D600045AF0135EDB2D9E7BAF1010F7FF43EAFBF
:102D70004FF0020AD2E775B9002F7FF438AF22680E
:102D800002F4E061B1F5E06F40F0FF8022F4F06200
:102D900001252260C2E7032DE3D0052DDFE7022DD8
:102DA0007FF424AF0325B9E7062D7FF41FAF072575
:102DB000B4E7226891057FF519AF22F420722260F2
:102DC0000297ABE7226802F4A061B1F5806F05D0ED
:102DD00050057FF50BAF002F00F0D780910558BF4D
:102DE000029922F4F06258BF791A42F4C0724FF08F
:102DF000000758BFCDE9041622608FE74FF0030AA1
:102E00008CE749464046D4F88031984700283FF483
:102E1000DFAEEBE6D4F87C314A46404616F8011D99
:102E200098472369013B2361EBE66B1E062B24D8F0
:102E3000022D36D8019B9E427FF6E7AED4F87C3156
:102E40004A46404616F8011D98472369013B236115
:102E5000F0E7D4F87C314A4640461BF8011D9847FC
:102E60002369013B23610AF1FF3A5FFA8AFABAF15A
:102E7000020FEED1033DEDB2761B2368DA0530D5A3
:102E80005B0511D5019B9E427FF6BFAED4F87C3125
:102E90004A46404616F8011D98472369013B2361C5
:102EA000F0E7AA46B346DEE716F8011C2369652958
:102EB00003F1FF3306F1FF3523610CD045290AD019
:102EC000D4F87C314A4640469847236916F8021CDC
:102ED000013BB51E23614A464046D4F87C319847F1
:102EE0002E46226812F0100201D000208EE63270C9
:102EF000236803F4C063B3F5806F25D1029B9F4222
:102F00000AD0DA1B04F26F139E4228BF04F5B7768D
:102F100030461F4900F002F900224046019902F0B4
:102F2000EBFB039B25681B6815F0020F06460F4656
:102F300003F1040215D003990A601B68C3E9006716
:102F4000E3680133E360D0E7049B002BE4D00599EC
:102F50000A234046013102F04FFC049B059EC21A31
:102F6000D0E76D07E7D4039D2A601D6802460B4633
:102F7000FDF74CFD20B1074800F0C4F92860DFE7F9
:102F800030463946FDF7A0FDF8E7002733E600BFDD
:102F9000066A0008476B0008002310B50446C0E924
:102FA0000033C0E90433836081814366C281836159
:102FB000194608225C3000F016F90D4B246263625A
:102FC0000C4BA3620C4BE3620C4B23630C4B9C42F7
:102FD00006D003F16802944202D0D0339C4205D15E
:102FE00004F15800BDE8104000F07AB910BD00BFF0
:102FF0006131000883310008BB310008DF3100086F
:1030000040020020024A0349034800F069B800BFAB
:103010000C000020AD5B00081C00002041680C4B38
:1030200010B59942044601D002F0C0FDA168094BD9
:10303000994202D0204602F0B9FDE168064B994260
:1030400004D02046BDE8104002F0B0BD10BD00BF66
:1030500040020020A80200201003002010B50B4BF6
:103060000B4C0C4A20461A6004210022FFF794FF03
:1030700004F1680001220921FFF78EFF04F1D0005E
:103080000222BDE810401221FFF786BF780300201E
:103090004002002005300008014800F022B900BFBE
:1030A00081030020014800F01DB900BF810300200A
:1030B00010B50446FFF7F0FF236A1BB1BDE81040CE
:1030C000FFF7F0BF044B2362044B1B68002BF5D1C4
:1030D000FFF7C4FFF2E700BF1D30000878030020AF
:1030E0002DE9F8430746884614460026D4E90195A1
:1030F000B9F1010905D52468002CF7D13046BDE8A7
:10310000F883AB89012B07D9B5F90E30013303D011
:1031100029463846C04706436835E9E70EB46FF0E4
:10312000004110B500249DB01FAB0290069007919E
:1031300004910948094953F8042B0591006802A934
:1031400001931B9402F0B6FB029B1C701DB0BDE8FE
:10315000104003B0704700BF180000200802FFFFB6
:1031600010B50C46B1F90E1000F06CF80028ABBF9A
:10317000636DA3891B1823F48053ACBF6365A381DF
:1031800010BD2DE9F0411F468B890546DB050C4635
:10319000164605D502230022B1F90E1000F040F8C2
:1031A000A389324623F48053A38128463B46B4F9D1
:1031B0000E10BDE8F04100F057B810B50C46B1F95B
:1031C0000E1000F02DF8431CA38915BF606523F491
:1031D000805343F48053A38118BFA38110BDB1F97C
:1031E0000E1000F00DB803460244934200D1704720
:1031F00003F8011BF9E70000004870475801002060
:1032000038B50023054D044608462B60FDF7ABFE9C
:10321000431C02D12B6803B1236038BD7C0300201E
:1032200038B50446084611460022054D2A601A4664
:10323000FDF7BDFE431C02D12B6803B1236038BDEE
:103240007C03002038B50446084611460022054D8F
:103250002A601A46FDF74EFE431C02D12B6803B1CB
:10326000236038BD7C03002038B50446084611466B
:103270000022054D2A601A46FDF759FE431C02D173
:103280002B6803B1236038BD7C030020014B186814
:10329000704700BF1800002070B500260C4D0D4C83
:1032A000641BA410A64209D103F06CFB00260A4D52
:1032B0000A4C641BA410A64205D170BD55F8043B0E
:1032C00098470136EEE755F8043B98470136F2E798
:1032D000046E0008046E0008046E0008086E000802
:1032E000704770477047034610B5C9B20244934215
:1032F000184601D1002003E0047801338C42F6D156
:1033000010BD0000004870470000C07F2DE9F74F56
:1033100003690C690746A3427EDB013CA30000F170
:10332000140501F11408009305EB8403019358F888
:10333000243055F8242001339A42B2FBF3F608EB0F
:1033400084092ED34FF0000AC446AE46D3465CF83B
:10335000043B98B206FB00A01B0C020C06FB0323E7
:10336000DEF8002080B292B2121A5A44DEF8000051
:103370004FEA134A9BB2C3EB224303EB104392B2D2
:1033800042EA0342E1454FEA234B4EF8042BDED2DA
:10339000009BEB582BB9019B043B9D421A462FD34F
:1033A0003C61384601F0CAF9002825DB2946002097
:1033B00058F8042BD1F800C01FFA82FE1FFA8CF3D4
:1033C000A3EB0E030344120CC2EB234202EB1C429C
:1033D0009BB243EA0243C1454FEA224041F8043B15
:1033E000E6D255F8242005EB840322B9043B9D4224
:1033F0001A460BD33C610136304603B0BDE8F08F6E
:103400001268043B002ACBD1013CC6E71268043B9A
:10341000002AEFD1013CEAE70020EEE700000000BF
:103420002DE9F04F14461D46C76997B08146CDE996
:103430000645239E7FB9102000F00EFE0246C9F813
:103440001C0020B9EF21AC4BAC4802F027FCC0E9CE
:1034500001770760C760D9F81C30196859B15A68FC
:10346000012393404A608B60484600F0EBFE002247
:10347000D9F81C301A602B1EAFBF0023012223F0A5
:1034800000430793A8BF3360DDF81C809C4BB8BF96
:10349000326033EA080312D142F20F73229A1360AA
:1034A000C8F31303234300F05E85249BDFF854A286
:1034B000002B00F060850AF1030300F05ABDDDE93E
:1034C0000623CDE90C23DDE90C0100220023FDF7E2
:1034D0006BFA074658B10123229A1360249B13B15B
:1034E000894B249A1360DFF824A200F044BD14AB8A
:1034F000019315AB00934846DDE90C2301F036FA41
:10350000C8F30A560390002E78D0DDE90C010D9B1C
:10351000A6F2FF36C3F3130343F07F5343F4401383
:103520001297194600227A4BFCF71EFE6CA3D3E9D2
:103530000023FCF7D1FF6CA3D3E90023FCF716FEB0
:10354000044630460D46FCF75DFF69A3D3E900232E
:10355000FCF7C2FF02460B4620462946FCF706FE52
:1035600004460D46FDF768FA002207460023204670
:103570002946FDF723FA40B13846FCF743FF2246BF
:103580002B46FDF711FA00B9013F162F54D8DDE99B
:103590000C01604B03EBC703D3E90023FDF70EFAE0
:1035A00000284BD00023013F0F93149B9B1B5A1EF6
:1035B00049BFC3F10103002304930023099254BFC0
:1035C00004930993002F3BDB099B0E973B4409931F
:1035D00000230A93209B092B65D8052BC4BF043B0D
:1035E0002093209BC8BF0024A3F10203D8BF01246D
:1035F000032B64D8DFE803F05355382CDDE914635E
:103600001E4406F23243202BC1BFC3F1400308FA27
:1036100003F806F2124324FA03F3D6BFC3F12003E2
:1036200048EA030004FA03F0FCF7DCFE0122A1F1F2
:10363000F873013E129274E70123B5E70F90B4E7E7
:10364000049BDB1B04937B420A9300230E93C1E788
:1036500001230B93219B07EB030B0BF10103012BC0
:103660000893B8BF012306E001230B93219B002B95
:1036700028DD9B46089300210422D9F81C0002F1A2
:1036800014059D4226D94160484600F09BFD8246C4
:10369000002843D1024640F2AF111F4BD4E600236D
:1036A000E3E70023D5E7012400230B9420934FF098
:1036B000FF3B00221223CDF820B02192DBE701234B
:1036C0000B93F4E74FF0010B5B46CDF820B0CDF83B
:1036D00084B0D0E701315200D1E700BFAFF30080E2
:1036E00061436F63A787D23FB3C8608B288AC63F08
:1036F000FB799F501344D33F186A00082F6A0008D3
:103700000000F07F146A0008E3690008E26900081D
:103710000000F83FE06B0008876A0008D9F81C3009
:103720001860089B0E2B00F2A180002C00F09E80F8
:10373000002F33DD9C4B07F00F0203EBC203F805AB
:10374000D3E90034CDE910344FEA271416D5DDE96A
:103750000C01964B0326D3E90823FCF7E7FFCDE9DC
:10376000060104F00F04914D54B9DDE91023DDE9A1
:103770000601FCF7DBFFCDE9060128E00226F2E7AF
:10378000E10708D5DDE91001D5E90023FCF7A4FE27
:10379000CDE91001013664100835E5E700F0AF808F
:1037A000DDE90C017C42804B04F00F0203EBC20305
:1037B000D3E90023FCF790FE02260023CDE90601A1
:1037C0007A4D2411002C40F08F80002BD3D1DDE9FD
:1037D00006450F9B002B00F09480002220462946CE
:1037E000734BFDF7EBF8002800F08B80089B002B53
:1037F00000F08780BBF1000F34DD2046002229460F
:103800006C4BFCF769FE5C46CDE9060107F1FF3819
:1038100001363046FCF7F6FDDDE90623FCF75CFED9
:103820000022654BFCF7A2FC0546A1F15076002C66
:103830006AD1DDE906010022604BFCF795FC0246E7
:103840000B46CDE906232A463346FDF7D5F8002876
:1038500040F09882DDE906012A4606F10043FDF7B3
:10386000ADF838BBDDE90C34CDE90634159B002BEF
:10387000C0F257810E2F00F354814B4B03EBC7036B
:10388000D3E90034CDE90434219B002B80F2E5809C
:10389000089B002B00F3E1800CD1DDE9040100223C
:1038A000464BFCF719FEDDE90623FDF79BF80028DF
:1038B00000F0668200242546219B56466FEA0308E5
:1038C00000272146484600F0BDFC002D00F0BD80D9
:1038D0002FB1AF4203D03946484600F0B3FC294629
:1038E000484600F0AFFCB0E0E20705D5D5E900237B
:1038F000FCF7F2FD012301366410083562E7022669
:1039000065E7B846089C84E7274B0B9903EBC40393
:1039100053E902235444002954D000202849FCF7DD
:1039200005FF33462A46FCF71FFC5646CDE9100139
:10393000DDE90601FDF780F80546FCF763FD024668
:103940000B46DDE90601FCF70FFC02460B4630355D
:10395000CDE90623DDE9102306F8015BFDF72EF81B
:10396000002872D1DDE9062300201149FCF7FCFB99
:10397000DDE91023FDF722F8002840F0B480A642CC
:103980003FF470AFDDE9100100220A4BFCF7A4FD03
:103990000022CDE91001DDE90601064BFCF79CFD94
:1039A000CDE90601C4E700BFE06B0008B86B000872
:1039B0000000F03F0000244000001C4000001440C4
:1039C0000000E03F31462846FCF786FD5646CDE92B
:1039D00010011394DDE90601FDF72EF80546FCF70A
:1039E00011FD02460B46DDE90601FCF7BDFB024670
:1039F0000B46303506F8015BA642CDE906234FF0B1
:103A0000000224D1DDE91001AE4BFCF7AFFB02460A
:103A10000B46DDE90601FCF7EFFF002863D1DDE985
:103A200010230020A749FCF79FFB02460B46DDE967
:103A30000601FCF7C3FF00283FF414AF139E731E6A
:103A4000139316F8013C302BF8D047463BE09E4BD1
:103A5000FCF742FDCDE90601BCE75646DDE9064527
:103A6000DDE9042320462946FCF760FEFCF7E4FF6D
:103A70008046FCF7C7FCDDE90423FCF72DFD024678
:103A80000B4620462946FCF76FFB08F13004089DE1
:103A900006F8014BA6EB0A04A54202460B4633D1B9
:103AA000FCF764FBDDE9042304460D46FCF7A4FFA4
:103AB000C0B9DDE9042320462946FCF775FF10B1A3
:103AC00018F0010F0ED14846039900F0BBFB00230C
:103AD0003370229B01371F60249B002B00F04B8228
:103AE0001E6048E2B84633461E4613F8012D392AB7
:103AF00006D19A45F8D1302208F101088AF8002051
:103B00001A7801321A70A0E700226F4BFCF7E4FC30
:103B10000022002304460D46FCF746FF00289FD0F4
:103B2000D1E70B9A002A00F0EA80209A012A00F3DC
:103B3000CD80129A002A00F0C18003F233430A9C20
:103B4000049E049A01211A440492099A48461A4490
:103B5000099200F075FC054666B1099B002B09DD52
:103B6000B342A8BF3346049AF61AD21A0492099AAD
:103B7000D31A09930A9B0BB30B9B002B00F0C68052
:103B8000002C00F0C08029462246484600F010FD77
:103B9000039A01460546484600F068FC03998046B2
:103BA000484600F04FFB0A9B1B1B0A9300F0B180B4
:103BB00041460A9A484600F0FBFC03900121484622
:103BC00000F03EFC0E9B0446002B00F0D8811A4604
:103BD0000146484600F0ECFC209B0446012B00F314
:103BE0009F80069B002B40F09780079BC3F3130335
:103BF000002B40F09380079B23F000431B0D1B0517
:103C000033B1049B01330493099B013309930123CE
:103C10000A930E9B002B00F0B881236904EB830309
:103C2000186900F0C1FBC0F12000099B184410F096
:103C30001F0000F08280C0F12003042B73DD049B81
:103C4000C0F11C0003440493099B064403440993F8
:103C5000049B002B05DD1A464846039900F002FD3F
:103C60000390099B002B05DD21461A46484600F0CB
:103C7000F9FC04460F9B002B61D02146039800F00D
:103C80005DFD00285BDA00230A224846039900F014
:103C9000FBFA0B9B07F1FF380390002B00F07781B4
:103CA000294600230A22484600F0EEFABBF1000F35
:103CB00005466FDC209B022B49DC6BE0149BC3F1B3
:103CC00036033CE70000E03F00002440089B5C1EF8
:103CD0000A9BA34209DB1C1B089B002BBFF630AFDD
:103CE000049B089A9E1A00232BE70A9B0E9AE31A5C
:103CF0001A440A94049E0024089B0E9221E70A9C11
:103D0000049E0B9D28E7DDF80C8051E70A9A039981
:103D100050E7CDF80C8051E7002379E7069B77E761
:103D200000230A9379E793D0049A1C331A4404922F
:103D3000099A1E441A4409928AE70346F4E7089B4D
:103D4000B846002B20DC9B46209B022B1EDDBBF1DE
:103D5000000F7FF4B1AD21465B460522484600F0D6
:103D600093FA01460446039800F0E8FC00287FF728
:103D7000A3AD5646312308F1010806F8013B9FE543
:103D8000B846089C2546F4E7DDF820B00B9B002BD5
:103D900000F00181002E05DD29463246484600F03C
:103DA00061FC05460A9B002B5CD04846696800F020
:103DB00009FA064628B9024640F2EF21804BFFF788
:103DC00043BB2A6905F10C01023292000C3001F06C
:103DD00051FF01223146484600F044FC2F4605467B
:103DE0000AF1010304930AEB0B030A93069B03F009
:103DF00001030993049B2146039803F1FF3BFFF75E
:103E000085FA034639463033069003980B9300F049
:103E100095FC2A4608902146484600F0ABFCC26853
:103E200006460B9B02BB0146039800F087FC024646
:103E30000B9B31464846CDE90B3200F003FA209B3C
:103E40000C9A049E42EA0301099B19430B9B0DD176
:103E5000392B27D0089A002A01DD069B31338BF8D5
:103E600000302EE52846B9E70122E2E7089900294B
:103E700004DB209801430998014320D1002AEEDD9C
:103E8000012203994846049300F0ECFB214603907D
:103E900000F054FC0028049B02DCE0D1DA07DED5F8
:103EA000392BDAD139238BF8003033461E4616F809
:103EB000012C013B392A4ED001321A7001E5002A4B
:103EC00003DD392BEED00133C9E7049A0A9902F8D1
:103ED000013C8A4228D000230A220399484600F078
:103EE000D3F9AF4203904FF000034FF00A02394676
:103EF000484607D100F0C8F907460546049B013340
:103F0000049377E700F0C0F92946074600230A2208
:103F1000484600F0B9F90546F0E7BBF1000FCCBF09
:103F20005E46012600275644012203994846049321
:103F300000F098FB2146039000F000FC0028B4DC60
:103F400002D1049BDB07B0D433461E4613F8012D83
:103F5000302AFAD0B5E49A45A8D1312308F10108F6
:103F60008AF80030ADE4249BDFF858A01BB10AF1B9
:103F70000803249A1360504617B0BDE8F08F209BC9
:103F8000012B7FF72EAE0E9B0A9301204DE6BBF16D
:103F9000000F7FF7D9AE564621460398FFF7B6F9D2
:103FA00000F1300306F8013BA6EB0A029345B4DDAD
:103FB00000230A224846039900F066F90390EBE7D4
:103FC000876A00080B6A000838B50546002940D00A
:103FD00051F8043C0C1F002BB8BFE41800F0E6F8C1
:103FE0001C4A136833B9636014602846BDE8384042
:103FF00000F0E2B8A34208D9206821188B4201BF23
:1040000019685B6809182160EDE71A465B680BB117
:10401000A342FAD911685018A0420BD1206801447C
:10402000501883421160E0D118685B680844106042
:104030005360DAE702D90C232B60D6E720682118F9
:104040008B4201BF19685B68091821606360546086
:10405000CBE738BD88030020024B0146186800F00A
:1040600025B800BF1800002070B50F4E0C4631680F
:10407000054611B901F0EEFD30602146284601F0F9
:10408000E9FD431C03D14FF0FF34204670BDC41C32
:1040900024F00304A042F8D0211A284601F0DAFDEA
:1040A0000130F2D1EFE700BF840300202DE9F8438F
:1040B000CD1C25F0030508350C2D38BF0C25002D2F
:1040C000064601DBA94204D90C2333600020BDE879
:1040D000F883DFF8D48000F069F8D8F800301C4687
:1040E00044BB29463046FFF7BFFF431C044658D166
:1040F000D8F800402746002F43D1002C4BD023682E
:104100003946304604EB030901F0A4FD814542D154
:10411000216830466D1A2946FFF7A6FF01303AD0D4
:1041200023682B442360D8F800305A6862BBC8F873
:1041300000700FE02268521B20D40B2A17D9611996
:10414000A342256018BF5960636808BFC8F8001013
:1041500062514B60304600F02FF804F10B00231D34
:1041600020F00700C21A1CBF1B1AA350AFE76268F9
:10417000A3420CBFC8F800205A60EBE723466468EE
:10418000AEE73C467F68B6E71A465B68A342FBD1C0
:1041900000235360DEE70C233046336000F00CF858
:1041A00094E70560D6E700BF880300200148FFF7C9
:1041B00098B800BF800300200148FFF793B800BF04
:1041C0008003002070B5C66904460D4676B91020FC
:1041D000FFF742FF0246E06120B96B21174B1848F8
:1041E00001F05CFDC0E901660660C660E669F3683F
:1041F00083B1E369DB6853F82500B8B9012101FAFE
:1042000005F6721D2046920001F066FD60B1C0E91E
:1042100001560EE021220421204601F05DFDE369F4
:10422000F060DB68002BE4D1002070BD026843F829
:1042300025200023C0E90333F7E700BF186A000810
:10424000986A000870B5C66905460C4676B9102014
:10425000FFF702FF0246E86120B98F21084B0948A9
:1042600001F01CFDC0E901660660C6603CB1EB6967
:104270006268DB6853F82210216043F8224070BD69
:10428000186A0008986A00082DE9F04107460C46B4
:104290001E4600200D6901F1140CDCF800300130DD
:1042A00099B202FB01611E0C0B0C02FB063389B2B2
:1042B00001EB034185424FEA13464CF8041BECDC4A
:1042C0000EB3A368AB4219DC616838460131FFF7D1
:1042D00079FF804628B90246BA210C4B0C4801F000
:1042E000DDFC226904F10C01023292000C3001F075
:1042F000C1FC21463846FFF7A5FF444604EB850381
:1043000001355E6125612046BDE8F081876A0008BD
:10431000986A00082DE9F843154609221F4608331C
:104320000C4693FBF2F30646012200219A4209DB78
:104330003046FFF747FF40B90246D321184B1948D2
:1043400001F0ACFC52000131F0E7089B092D4361FC
:104350004FF00103036116DD04F10909C8462C443E
:1043600018F8013B01460A223046303BFFF78CFF2C
:10437000A045F5D1A5F108044C442D1B6319BB429F
:1043800004DBBDE8F88309250A34F6E714F8013B9D
:1043900001460A223046303BFFF776FFEEE700BFCA
:1043A000876A0008986A00080346B0F5803F3ABF64
:1043B000030410200020B3F1807F3CBF1B020830B3
:1043C000B3F1805F3CBF1B010430B3F1804F3CBFB1
:1043D0009B000230002B05DB13F0804F00F1010041
:1043E00008BF202070470368024613F007000BD077
:1043F000D90721D4980749BF5B089B0801201360A7
:104400005CBF02201360704799B209B910201B0CE1
:10441000D9B209B908301B0A190704BF1B090430B7
:10442000990704BF9B080230D90703D45B0800F149
:10443000010003D0136070470020704720207047B0
:1044400010B50C460121FFF7BDFE024628B940F227
:104450004511044B044801F021FC01234461036130
:1044600010BD00BF876A0008986A00082DE9F04F68
:1044700017460A693B6989469A42A2BF3B460F46E6
:1044800099463D69D9F810A0BB68796805EB0A0622
:10449000B34285B0B8BF0131FFF794FE30B9024690
:1044A0004FF4B171404B414801F0F8FB00F11404A6
:1044B0002346002204EB860E734520D307F114082F
:1044C00009F1140108EB850501EB8A030293EB1B4C
:1044D000153B23F0030304331537BD4238BF0423D3
:1044E0000193029B03918B420CD8002E03DD5EF8F2
:1044F000043D002B55D0066105B0BDE8F08F43F8B0
:10450000042BD9E7B1F800A0BAF1000F1FD0C446C0
:10451000A14600275CF8042BD9F800301FFA82FB73
:104520009BB20AFB0B333B44D9F80070120C3F0CD2
:104530000AFB027202EB13429BB243EA0243654557
:104540004FEA124749F8043BE4D8019BE750039B2C
:104550000431B3F80290B9F1000F20D04746A446C9
:104560004FF0000A2368B7F800B0BCF802209BB2F5
:1045700009FB0B22524443EA02434CF8043B57F830
:10458000043B4FEA134ABCF80030BD4209FB0A3332
:1045900003EB12434FEA134AE5D8019AA3500434BF
:1045A0009FE7013EA1E700BF876A0008986A0008FC
:1045B0002DE9F843154612F0030207460E4607D0D0
:1045C000254C013A002354F82220FFF75DFE0646F1
:1045D000AD103DD0FC697CB91020FFF73DFD0246CF
:1045E000F86128B940F2B3111C4B1D4801F056FB8D
:1045F000C0E901440460C460D7F81C80D8F80840C2
:104600004CB940F271213846FFF71AFF00230446E7
:10461000C8F8080003604FF00009EB070AD53146DF
:1046200022463846FFF722FF804631463846FFF7DC
:1046300009FE46466D100BD0206838B92246214647
:104640003846FFF713FF2060C0F800900446E4E707
:104650003046BDE8F88300BFA86B0008186A000860
:10466000986A00082DE9F0470C46074691462369F1
:10467000496803EB6218A3684FEA621A08F1010661
:10468000B3420BDB3846FFF79DFD054648B90246AD
:104690004FF4EF71274B284801F000FB01315B001C
:1046A000EEE7002300F1140100F110021846534513
:1046B00033DB20692AEAEA7A04F1140319F01F09AE
:1046C00001EB8A0103EB800C2BD08A460022C9F152
:1046D000200E186800FA09F010434AF8040B53F84A
:1046E000042B9C4522FA0EF2F3D8ACEB0403153BE5
:1046F00023F00303043304F11500604588BF04234D
:10470000CA500AB108F10206013E384621462E6120
:10471000FFF798FD2846BDE8F08742F8040F013303
:10472000C5E7043953F8042B9C4541F8042FF9D808
:10473000EAE700BF876A0008986A000803460A692A
:10474000006930B5801A0ED11433143103EB8204A2
:1047500001EB820154F8045D51F8042D954203D019
:1047600005D24FF0FF3030BDA342F3D3FBE7012069
:10477000F9E700002DE9F74F8946064611464846FD
:104780001446FFF7DBFF051E12D129463046FFF71E
:1047900019FD024628B940F237213E4B3E4801F050
:1047A0007DFA0123C0E90435104603B0BDE8F08F5F
:1047B000BCBF4B46A1463046D9F80410BABF1C46D0
:1047C00001250025FFF7FEFC024618B940F24521FD
:1047D000304BE3E700F1140BD9F8107009F1100326
:1047E000C5604FF0000C09F11405D946266904F1A3
:1047F000140E05EB87080EEB86060193019B5EF80D
:10480000040B53F804AF81B201931FFA8AF35B1AC9
:10481000000C6344C0EB1A4000EB23409BB243EA18
:10482000004376454FEA204C49F8043BE6D8331B59
:10483000153B23F0030315340433A64238BF042389
:104840001D445B441E462C4644450ED308F103012B
:10485000491B21F00301033DA84538BF00210B444B
:1048600053F8041D99B117619EE7E64654F8041BFE
:104870001FFA81FCF444080C714400EB2C4089B20F
:1048800041EA00414FEA204C46F8041BDCE7013FB7
:10489000E6E700BF876A0008986A00080E4B0B40E5
:1048A000A3F15073002B08DC5B42B3F1A07F4FEA09
:1048B000235204DA4FF400231341002208E0A2F14E
:1048C00014031E2BD6BF4FF000420122DA40002312
:1048D00019461046704700BF0000F07F0269F8B526
:1048E00000F1140606EB820252F8044C1E4F2046DB
:1048F000FFF75AFD0346C0F120000A2BA2F1040580
:10490000086012DCAE422CBF002252F8082CC3F122
:104910000B0C153324FA0CFE04FA03F322FA0CF202
:104920004EEA07011A431046F8BDAE4236BFA2F167
:104930000805002252F8082C0B3B12D0C3F12007C7
:1049400022FA07F19C400C43B54244F07F5194BFDA
:10495000002455F8044C9A40FC4041F44011224395
:10496000E1E744EA0701DEE70000F03F2DE9734389
:10497000012190469946089EFFF724FC044630B971
:10498000024640F20F31234B234801F087F9C9F367
:104990000A55C9F313030DB143F480130193B8F121
:1049A000000324D068460093FFF71DFDDDE90012E7
:1049B000D8B1C0F1200302FA03F30B43C240636194
:1049C0000192019B002B0CBF01220222A3612261F4
:1049D000ADB1A5F2334505443560C0F13500099B02
:1049E0001860204602B0BDE870836161E9E701A864
:1049F000FFF7F9FC019B012263612030E7E7A0F299
:104A0000324004EB820330601869FFF7CDFCC0EB45
:104A10004210E4E7876A0008986A00082DE9F04F21
:104A200085B0CDE9001002A9FFF758FF8B46064676
:104A30000F46009803A9FFF751FF0D46019B8946D9
:104A40001969009B04461B693046C91ADDE9023228
:104A50009B1A03EB4113002BCDBF3A462A46C3EB0A
:104A6000033302EB035BD8BF02EB03594B462246EC
:104A70005946FBF75BFE05B0BDE8F08F013970B514
:104A800049111469013102F1140300EB810103EBB8
:104A90008404051FA3420CD3A31A113B23F0030384
:104AA0001132A24288BF002318440023884205D354
:104AB00070BD53F8046B45F8046FEBE740F8043B16
:104AC000F4E700F1140200694B11984210B511DBB4
:104AD0000ADD11F01F0107D052F8234024FA01F03B
:104AE00000FA01F18C420BD102EB8303934203D80D
:104AF000002010BD0346F7E753F8041D0029F5D048
:104B00000120F6E72DE9F0410F469046FFF7C6FE7B
:104B100004460D46B8F1000F11D0C7F30A53C3F194
:104B20006B03002B0BDD00241B0503F17F5505F5FE
:104B3000401522462B46FBF7CFFC04460D46204687
:104B40002946BDE8F08100002DE9F04F9FB0179293
:104B500000220C461A924FF0000A4FF0000B0A4652
:104B60000590199211782B2948D036D80D2930D8C4
:104B7000082930D8002939D000220E92199D2A78B0
:104B8000302A40F0B0806A7802F0DF02582A6CD1F7
:104B900002930E9B8F4A01931AAB009305981BABAF
:104BA00019A901F015F910F00F06044605D0062EDC
:104BB00026D10023013519950E93179B002B40F049
:104BC00082850E9BBBB150460BF100411FB0BDE882
:104BD000F08F2029D0D10132C3E72D29CCD101217A
:104BE0000E91511C19915278002AC7D1179B199424
:104BF000002B40F0668550465946E7E70021EFE775
:104C00001A9A3AB135211CA8FFF738FF1A9905986E
:104C1000FFF718FB013E1B9A042E06D8DFE806F0CA
:104C200014031D201400DDE91CABE10548BF4BF067
:104C3000004B2BF000431B0D1B05002BBDD1FEF7D5
:104C400025FB22230360B8E702F23342DDE91CA30F
:104C500023F4801343EA025BE7E7DFF87CB1E4E783
:104C60006FF0004B4FF0FF3ADFE7199B5A1C199287
:104C70005B78302BF9D0002B9FD0012300270A222C
:104C8000B9460893199B0B970C9319980578A5F1D1
:104C90003003D9B2092928D90122504900F0C8FFB0
:104CA000002832D000202A4603464D460A90652A45
:104CB00001D0452A14D11DB9089A024396D0002587
:104CC000199C621C199262782B2A7AD02D2A7ED0E8
:104CD0004FF0000CA2F13001092940F285801994AF
:104CE0004FF00008A5E00023C8E7B9F1080FD8BFCE
:104CF0000B9900F10100D6BF02FB013302FB07371D
:104D00000B9309F101091990BFE7199B5A1C1992DD
:104D10005A78B9F1000F3BD04D460A90A2F130030A
:104D2000092B12D90123C2E7199B01305A1C199291
:104D30005A78302AF8D0A2F13103082B00F2C88447
:104D40000A9000200546199B0C93303A00F10103AC
:104D500018D02E464FF00A0E0A9919440A91711C78
:104D6000A1EB050C634515DC20EAE0702B18082B3D
:104D700005F1010505441ADC0A230B9903FB012305
:104D80000B930023199A1846511C19915278C5E7C4
:104D90004846CEE7082E05DC0B9E0EFB06F60B966A
:104DA0000E46DCE71029D8BF0EFB07F7F8E70F2BFC
:104DB000DCBF0A2303FB0727E3E700230A93012351
:104DC0007AE74FF0000CA21C1992A27882E74FF00C
:104DD000010CF8E7BC6C00080000F07FF16A0008E5
:104DE000199A511C19915278302AF9D0A2F1310147
:104DF00008293FF675AF4FF00A08303A0992199A20
:104E00000F92199A561C19965278A2F1300EBEF1E3
:104E1000090F39D90F9944F61F68761A082E03DC5A
:104E200009998845A8BF8846BCF1000F01D0C8F198
:104E30000008002D4ED1089908437FF4BEAE002B28
:104E40007FF4D4AE692A28D025DC492A25D04E2A01
:104E50007FF4CCAE994919A801F0DCF900283FF4A1
:104E6000C5AE199B1B78282B2ED195491CAA19A8D1
:104E700001F0E4F9052827D11D9BDDF870A043F06F
:104E8000FF4B4BF4E00B98E6099908FB0121A1F1D7
:104E900030020992B5E76E2ADAE78A4919A801F0CB
:104EA000B9F900283FF4A2AE199B8749013B19A824
:104EB000199301F0AFF910B9199B013319934FF011
:104EC000000ADFF808B278E6814800F0E1FE824689
:104ED0008B4672E60A9BB9F1000F08BFA946A8EB02
:104EE0000303102D0B982C460993A8BF1024FBF741
:104EF00079FA092D82468B4611DC099B002B3FF481
:104F00005CAE099B76DD162B5DDC7249524601EBE7
:104F1000C3015B46D1E90001FBF7DEFAD7E76D4B31
:104F200003EBC40353E91223FBF7D6FA8246384653
:104F30008B46FBF757FA02460B4650465946FBF79D
:104F400015F90F2D82468B46D7DD099B2C1B1C447F
:104F5000002C40F3938014F00F030AD05D495246B1
:104F600001EBC301D1E900015B46FBF7B5FA8246CC
:104F70008B4634F00F0473D0B4F59A7F49DD0024DA
:104F8000A046A1460B9422234FF0000A059ADFF8B1
:104F90003CB113600B9B002B3FF40FAE1A990598A0
:104FA000FFF750F949460598FFF74CF94146059837
:104FB000FFF748F90B990598FFF744F92146059842
:104FC000FFF740F9F9E5099AC5F125039342BCDBE7
:104FD000404CC5F10F0504EBC5015246D1E9000173
:104FE0005B46FBF779FA099B5D1B04EBC504D4E92A
:104FF000002391E71633A8DB0A9B5046A3EB080871
:10500000344B594603EBC808D8E90023FBF78EFB65
:105010005DE70023504659461E462F4F2411012CB0
:1050200021DC0BB182468B462B49ABF1547B01EB63
:10503000C6015246D1E900015B46FBF74DFA234B0E
:105040000A460B40254982468B4298D8A1F580112B
:105050008B4286BF4FF0FF3ADFF884B002F1547BF9
:105060000023089376E0E20704D5D7E90023FBF795
:1050700033FA0123013664100837D0E7F0D06442D8
:1050800014F00F020AD0134B504603EBC2035946EB
:10509000D3E90023FBF74AFB82468B462411DFD07D
:1050A0001F2C1FDD0024A046A1460B942223059A45
:1050B0004FF0000A4FF0000B13606BE7DF69000848
:1050C000A86C0008D76900080E6A00080000F07F8D
:1050D000476B0008E06B0008B86B00080000A07C7C
:1050E000FFFFEF7F14F0100318BF6A2350460893A8
:1050F00059460023774EE70704D5D6E90023FBF78E
:10510000EBF90123641006F10806F4D10BB18246D5
:105110008B46089BB3B1CBF30A52C2F16B03002B51
:1051200059460FDD1F2B58DD342BD8BF4FF0FF330E
:105130004FF0000ACFBF4FF05C7BC2F14B029340AF
:1051400003EA010B0022002350465946FBF72CFCD2
:105150000028A7D10B9B4A4600930C992B46059833
:10516000FFF7D8F80B9000283FF409AF0024099A04
:105170000A9B002AA3EB0803A8BF0023A0461293B2
:1051800022EAE27316930B9B05985968FFF71AF809
:10519000814600283FF4F7AE0B9B0C301A6903F1EF
:1051A0000C010232920000F065FD1CAB01931BABB9
:1051B000009352465B460598CDE90CABFFF7D6FB52
:1051C0001A9000283FF4DFAE01210598FFF738F967
:1051D000804648B94FF00008D5E64FF0FF3202FA9A
:1051E00003F303EA0A0AADE71B9D1C9A002DABBF2F
:1051F000129B169BEF185E1B089BA8BF169EA5EB83
:1052000003051544344B05F1FF35B8BF129F9D428D
:10521000C2F1360250DA5B1B1F2B4FF00101A2EBEB
:1052200003023DDC01FA03F3139300231093BD182E
:10523000089BAF4216441E443B46A8BF2B46B342D0
:10524000A8BF3346002BC2BFED1AF61AFF1A129BF5
:10525000002B16DD41461A460598FFF7A9F980464E
:105260000028B7D001461A9A0598FFF7FFF80A9070
:1052700000283FF488AE1A990598FEF7E3FF0A9BD1
:105280001A93002D1DDC099B002B27DD4946169A39
:105290000598FFF78DF9814600BB4FF0000972E6D3
:1052A000C5F17F4505F57F0505F57B45E23501FA3A
:1052B00005F310931391BAE700231093012313937E
:1052C000B5E72A461A990598FFF7CCF91A900028F5
:1052D000D9D158E6D06C000802FCFFFF002E07DD94
:1052E000494632460598FFF7BDF981460028D4D0DB
:1052F000002F08DD41463A460598FFF7B3F980468E
:1053000000283FF440AE4A461A990598FFF732FA52
:10531000044600283FF437AEC36841460F9300238C
:10532000C360FFF70BFA00283DDA0F9B53EA0A032C
:1053300063D1CBF31303002B5FD12BF000431B0D84
:105340001B05B3F1D66F58D9636913B92369012BD3
:1053500053DD214601220598FFF784F941460446B2
:10536000FFF7ECF9002848DD2BF00043089A1B0DED
:105370001B05002A62D0B3F1D66F5FD8B3F15C7F12
:105380007FF694AE50465946A34B0022FBF7A4F893
:10539000A24B82460B408B46002B7FF4FFAD2223AD
:1053A000059A1360FAE5CDF828B065D10F9ACBF3D2
:1053B00013035AB39A4A93422BD1089B514603B325
:1053C0005A46964B1340B3F1D46F4FF0FF321BD8BF
:1053D0001B0DC3F16B0302FA03F3994219D1914BF0
:1053E0000A9A9A4202D101313FF4CDAD4FF0000A42
:1053F0008A4B0A9A1A4002F5801B089B002BC1D1E8
:10540000CCE54FF0FF33E8E71346E6E753EA0A033B
:10541000AAD0109BDBB10A9A1342EED00F9B5046E4
:105420005946089ABBB1FFF76DFB02460B46DDE912
:105430000C01FAF79BFE82468B46DEE7A3F580134C
:105440006FEA135B4FF0FF3A6FEA0B5BD5E7139BF4
:1054500013EA0A0FE1E7FFF755FB02460B46DDE9C9
:105460000C01FAF781FE0022002382468B46FBF7EF
:105470009BFA0028C1D019E641462046FFF7CEFA34
:1054800000224FF0804306460F46FBF7A1FA0028A2
:105490006DD00F9B002B78D1BAF1000F56D10A9B2B
:1054A000C3F31303002B58D10022304639465E4B1C
:1054B000FBF784FA002857D13046394600225B4B6F
:1054C000FBF70AF806460F4607F1004306960793D6
:1054D000DDE90623514DCDE910230A9B1D40544BB5
:1054E0009D4240F0AB800A9B5046A3F1547B594645
:1054F000FFF7D4F9DDE90623FAF7EEFF52465B46E3
:10550000FAF734FE0B4645494A4A19409142824611
:1055100042D90D9A434B9A4203D10C9B01333FF47D
:1055200032AD4FF0FF3ADFF8FCB01A990598FEF75C
:1055300089FE49460598FEF785FE41460598FEF727
:1055400081FE21460598FEF77DFE1CE6BAF1010FAB
:1055500003D10A9B002B3FF4A9AD0022364B002655
:10556000CDE90623304FB3E70026304FACE7304695
:1055700039462E4B0022FAF7AFFF0F9B06460F4627
:10558000002BA1D0CDE90667A2E70022264B1646E4
:105590001F46CDE906239BE703F1547B089BCDF81A
:1055A00028B0002BC1D12BF000431B0D1B059D42E1
:1055B000BBD130463946FBF7D7FAFAF75FFF024610
:1055C0000B4630463946FAF7CFFD0B460246CBF381
:1055D0001306CDE90C230F9B46EA0A061E436AD048
:1055E00009A3D3E90023FBF7E9F900287FF4D6AC3F
:1055F00007A3D3E90023DDE90C01FBF7FDF900283F
:1056000093D0CBE4AFF300809535A094FFFFDF3F4C
:1056100035E5AF350000E03F000050390000F07F75
:10562000FFFF0F00FFFFEF7F0000F03F0000E03FB3
:105630000000E07FFFFF9F7C0000F0BF089B23B3CA
:10564000B5F1D46F21D828A3D3E9002330463946D9
:10565000FBF7BEF9A0B139463046FBF715FA012831
:1056600038BF0120FAF7BEFE0F9B06460F46FBB976
:1056700001F1004314901593DDE91423CDE91023C3
:10568000119B03F1D6635B1B1193DDE90C01DDE98E
:1056900010ABFFF703F902460B4650465946FAF79E
:1056A0001BFFDDE90C23FAF761FD82468B4675E7A7
:1056B000CDE91467E0E70EA3D3E90023FBF77EF9F9
:1056C0009DE700230E93199B179A1360FFF779BA91
:1056D000652A3FF472AB452A3FF46FAB0123FFF715
:1056E000AABB00BFAFF300800000C0FFFFFFDF4197
:1056F0009535A094FFFFCF3F014BFFF725BA00BFC0
:1057000068000020242B2DE9F0478646904601D8FA
:10571000012B06D1FDF7BAFD162303600020BDE87A
:10572000F0870D4633482A4615F8014B065D16F002
:105730000806F8D12D2C10D101262C78951C33F0B9
:10574000100215D1302C0DD12A7802F0DF02582A30
:1057500008D16C78023510230AE02B2C04BF2C787A
:10576000951CECE7002BF6D1302C14BF0A2308233C
:10577000002206F1004C0CF1FF3CBCFBF3F9104693
:1057800003FB19CAA4F13007092F0FD83C46A342E6
:105790001BDD571C07D0814514D301D1A24511DB75
:1057A000012200FB034015F8014BEBE7A4F1410790
:1057B000192F01D8373CEAE7A4F16107192F04D863
:1057C000573CE4E74FF0FF32EDE7531C08D12223AA
:1057D0006046CEF80030B8F1000FA0D0691E06E098
:1057E00006B14042B8F1000F99D0002AF6D1C8F8AE
:1057F000001094E7F96C0008FFF784BF2DE9F0472B
:105800001F468E688246BE420C4690460B682DD8D5
:10581000B1F90C2012F4906F26D06569096905EB87
:105820004505A3EB010905EBD5757B1C4B446D10B9
:105830009D4238BF1D46530527D52946FEF736FC45
:10584000064660B34A46216900F014FAA38923F49E
:10585000906343F08003A38126614E4426603E4658
:105860006561A5EB0905A560BE4200D93E463246FA
:105870004146206800F0C2F90020A3689B1BA3608A
:10588000236833442360BDE8F0872A4600F083FD97
:1058900006460028E0D150462169FEF795FB0C230F
:1058A000CAF80030A3894FF0FF3043F04003A381D2
:1058B000E9E700002DE9F04F98468B8907461B0663
:1058C0000D4614469DB010D50B6973B94021FEF703
:1058D000EDFB2860286130B90C233B604FF0FF30AE
:1058E0001DB0BDE8F08F40236B6100230993202396
:1058F0008DF8293030234FF00109CDF80C80DFF806
:1059000098818DF82A3023469A4613F8012B0AB164
:10591000252AF9D1BAEB040B0BD05B462246294667
:105920003846FFF76BFF013000F0A780099A5A4410
:1059300009929AF80030002B00F09F8000234FF06E
:10594000FF32CDE905230AF1010A049307938DF88C
:1059500053301A935446052214F8011B4E48FDF7A4
:10596000C2FC049AD8B9D00644BF20238DF8533026
:10597000110744BF2B238DF853309AF800302A2B9F
:1059800015D0544600204FF00A0C079A214611F812
:10599000013B303B092B4BD9B0B1079214E0A0EB8F
:1059A000080309FA03F31343A2460493D2E7039BC7
:1059B000191D1B680391002BBBBF5B4242F0020222
:1059C00007930793B8BF049223782E2B0AD16378EC
:1059D0002A2B32D1039B02341A1D1B68039243EA1F
:1059E000E3730593DFF8B4A0032250462178FDF756
:1059F0007AFC38B14022049BA0EB0A00824013439A
:105A00000134049314F8011B062225488DF8281050
:105A1000FDF769FC002836D0224B1BBB039B0733E4
:105A200023F0070308330393099B334409936AE780
:105A30000C4601200CFB0232A8E700234FF00A0CB1
:105A4000194601340593204610F8012B303A092AF3
:105A500003D9002BC6D00591C4E7044601230CFBF3
:105A60000121F0E703AB00932A4638460E4B04A908
:105A7000FCF7CCFC421C0646D6D1AB895B063FF551
:105A80002DAF09982CE703AB00932A463846064B06
:105A900004A9FCF759FFEDE7F36A0008F96A00086A
:105AA000FD6A00080D240008FD570008B1F90C201C
:105AB000F8B5160705460C4654D44B68002B02DC9B
:105AC0000B6C002B48DDE66A002E45D0002312F453
:105AD00080522F68216A2B6030D0626DA3895907EC
